:100000000C942A000C9434000C9434000C943400AA
:100010000C9434000C9434000C9434000C94340090
:100020000C9434000C9434000C9434000C94340080
:100030000C9434000C9434000C9434000C94340070
:100040000C9434000C9434000C9434000C94340060
:100050000C94340011241FBECFE5D8E0DEBFCDBF25
:100060000E943D000C9463000C9400008AB38F60E2
:100070008ABB87B38C7F87BB08950E9436001BBA6A
:1000800080E090E0B09B0EC0E7EAF1E63197F1F72F
:1000900000C00000B09B06C00496282F2F702BBB19
:1000A000B099FECFB19BEECFE7EAF1E63197F1F7D9
:1000B00000C00000B19BE6CF0497282F2F702BBB08
:0A00C000B199FECFDFCFF894FFCF17
:00000001FF
