:100000000C942A000C943F000C943F000C943F0089
:100010000C943F000C943F000C943F000C943F0064
:100020000C943F000C943F000C943F000C943F0054
:100030000C943F000C943F000C943F000C943F0044
:100040000C943F000C943F000C943F000C943F0034
:100050000C943F0011241FBECFE5D8E0DEBFCDBF1A
:1000600010E0A0E6B0E0E4EFF0E002C005900D92F1
:10007000A03BB107D9F70E9473000C9478000C9450
:100080000000A0E0B0E080E090E046E950E0BD0173
:10009000660F771F660F771F660F771F605A7F4FB7
:1000A000FC01E855FF4F208128BBFB01E80FF91F39
:1000B000208120952BBBE3EFF1E03197F1F700C0F1
:1000C000000001968830910514F080E090E04150E6
:1000D000510931F71196A930B105BCF2A0E0B0E0AA
:1000E00080E090E0D2CF8FEF87BB8ABB0E944100B7
:0400F000F894FFCFB2
:1000F40000C0A0A0A0C000000060505050600000EC
:1001040000302828283000000018141414180000A7
:10011400000C0A0A0A0C000000060505050600008A
:1001240000030202020300000001010101010000BA
:1001340000000000000000000102040810204080BC
:00000001FF
