S0110000753867325F64656D6F2E73726563C9
S11300000C94D10B0C94EE0B0C94EE0B0C94EE0BA5
S11300100C94EE0B0C94EE0B0C94EE0B0C94EE0B78
S11300200C94EE0B0C94EE0B0C94EE0B0C94EE0B68
S11300300C94EE0B0C94EE0B0C94EE0B0C94EE0B58
S11300400C94EE0B0C94EE0B0C94EE0B0C94EE0B48
S11300500C94EE0B07634236B79BD8A71A3968563F
S113006018AEBAAB558C1D3CB7CC5763BD6DEDFDD6
S1130070753EF6177231BF000000803F0800000093
S1130080BE922449123EABAAAA2ABECDCCCC4C3E89
S113009000000080BEABAAAAAA3E00000000BF0078
S11300A00000803F0000000000084178D3BB438774
S11300B0D1133D190E3CC3BD4282AD2B3E68EC8288
S11300C076BED98FE1A93E4C80EFFFBE01C4FF7F0D
S11300D03F0000000000BF00030304050305060FF2
S11300E014FFFC0CFC0CFD01E604180CAE2005000A
S11300F0184B2109C20C4D1C2C6904220A458A5153
S1130100485824A100231BC908D3498412A144746C
S1130110881C4212A14474881C4212A144289101F3
S11301202414E7FAD2052B0749841223728B502238
S113013007493106251FCD085D4983B4A04814142E
S113014049C2A4B8280E0DC943E4884818528C113A
S1130150A322002616CA0A59518D22A1484A9E4953
S11301609A2AB2916C76888D062707428A495802EA
S1130170280CF4DA4C49264AFA9B6824290EF4D850
S11301804C88463291FE229988002A0B55784DA559
S1130190A48C26B1002B0D880AD589D50E07995851
S11301A00D002C0952DA48502212002D0724384B36
S11301B01C022E06220A49102F0FC408CB2589627F
S11301C021512C248AA501300FC80853D12CA32215
S11301D01F4B131B0900310AC50A53C60E35FD0116
S11301E0320FC80853D12CA322513ADCF1701033DA
S11301F012C80853D12CA3A2744624174B131B090D
S1130200003413C808530E69129944A48B4C7238F5
S113021048C52A003511C808533989A535536C2CB3
S11302202E4D6C24003612C80853D12CA3B264742A
S1130230191589A5898D04370FC808533C48C55240
S1130240B154AC2A56043813C80853D12CA3A24481
S113025024A35946C5D2C446023912C80853D12C26
S1130260A322B134394DC4A5898D043A08820C4BBC
S1130270D021043B0BB2DC4AD021948804003C0C0E
S1130280880A550B49A4E99C4C163D0B681A553C49
S1130290C8910E07013E0C880A5588D9A723463118
S11302A0003F10C70AD5540E329A543854954395DA
S11302B0004022EDEA605A8732392414AB9064215D
S11302C0594CA426528B89944821519A482687CEAA
S11302D0E445004116CB0859CE21F3B2443A19CA79
S11302E0644B52D14172B0D3054214C90A579C0ED3
S11302F011619578A01C22C22AF14039014316CA23
S11303000AD9154FB389B42E87C821738854321B78
S11303101D4B004415CA0A59180F21E1442A91962D
S113032059AB12E1E4103202450EC80A553C9095CF
S11303302F17B1F2E120460DC80A553C90952F17AE
S1130340B1CE004716CA0AD9154FB389B42E87080F
S11303506F14A964363AC42802480CCA0A59883969
S11303601F1EC67C164907C20A497C184A0CC70AD4
S1130370D3EA571AED20A9004B19CB0A594827C2D2
S1130380916C261A4AA665AB68289B0947D28978DE
S1130390004C0BC80A5588F5CF8783004D19CB0A4A
S11303A05B4C5D6F87982516A1A85054489110693D
S11303B0441AD162024E15CA0A594C8D468A8C22BF
S11303C0238948229A842621BA0E4F14CB0ADB557E
S11303D06F4B52C9B44EAF4EA4A2D9EC5A0350107D
S11303E0C90A579C0E116195F14039C9B5035117DB
S11303F0DBFADA556F4B52C9B44EAF8524A2D288CA
S113040076BD8342005219CA0A591C4207895422F4
S113041095082787D021249C48255289B43A531142
S1130420C90A57D52EB3AAD95AAFD626B712005443
S113043019CA08553C18E51039440E9143E41039A3
S1130440440E9143E4102100550DCA0A5988F9E776
S1130450E2E41033015618CA085788C912A1482883
S113046012CA444291502425D3E5102100571ECED0
S1130470085F088544215145A6242229916492509D
S113048044482292A842B1502C94015814C90A57E6
S1130490486B13998AB03A9E1625329559550059DE
S11304A018CA0857888B13A14C241449C9743944B9
S11304B00E9143E41021005A0FC80A553C48A7AADC
S11304C0C3A9EAF470105B0BF4DA4C1C46FA4F87AC
S11304D0005C0DC4084BC462B234599A2C035D0B02
S11304E0F4D84C1C42FA4F87015E0D785AD589A581
S11304F03491162151005F0719D8521C0460083347
S1130500AC4D8464016111980AD3942E32E9C83247
S113051092C824A7C9006211C80A5588B58C2EA3B5
S11305202263E930918C00630E980A53D12CA3B254
S1130530F268622301640FC80A556BB21C4645C6B3
S1130540D2E43411650F980A55D12CC2C3C13C9A28
S1130550D84800660DC40A4D4926924344A42F008E
S11305606713D8CA544D24875191B134394DC4A569
S1130570898D04680DC80A5588B5500E34221F05AC
S11305806909C20A49900E07026A0B03CBCA284ABA
S1130590F42F17006B14C80A5388B595269251CDD1
S11305A03411892632896C006C07C20A497C186DA3
S11305B0169C0A5D482893C32134A2C968329A8CD8
S11305C026A3C9680A6E0C980A554828071A918F01
S11305D0026F0E980A55D12CA3226369622301701D
S11305E012D8CA544846975191B17498484662CD7E
S11305F0007110D8CA544D24875191B134394DC477
S11306003A720B950A4D480E2399DE00730E970A31
S1130610D3540E3263B576905400740DB40ACD8869
S113062024878848A79100750B980A5508F9ED406E
S1130630A108760F98085308891291DE8854B10CEA
S11306400077159C085BC864341591BE506487E03C
S1130650682A128B6400780F970A53C86812A5DAC7
S1130660AC2451A3097915D8C85208891299442495
S113067093C82432EA54AC3895027A0C9708513C5A
S1130680CE86C2D9EC707B0EF4DA4C4926225D6426
S1130690229D46027C0701CB483C087D0EF4DA4CCF
S11306A088467A9388749988007E0A383AD5CC446F
S11306B06A1300A00500184BA10AC2DA4CD022919B
S11306C08301A213B8F8D206699689292691498232
S11306D094898D1805A312C808D30D4B32894C2276
S11306E09716C5E2F0E110A40F772A534426918AA5
S11306F08C4D52894C02A511C808530889129136B1
S1130700AAD028348AD500A60701CD4A9C0EA71486
S1130710F8D852D14C9A891659D1243192454A3687
S11307201200A80825A84D482802A91DCC085992F2
S11307304733B128448A28494671517C2292484261
S1130740A4903C361A1301AA0C755ACD889226A19E
S113075010B500AB0E682853A98824226D2299484D
S113076000AC085828553C8835AD0724384B1C028A
S1130770AE1CCC0859924733B128528A2849469A6C
S113078088132549442924968DC64400AF0615A82C
S11307904D14B00B547ACF48424A110900B10FB836
S11307A00AD589D50E0799581D783808B20C7558A2
S11307B0CD4C241491D26100B30C7558CD4CD44463
S11307C0428A6402B40833AA4D454600B50DC8DA1E
S11307D05408F9ED7090909501B620F8D8D21C48D1
S11307E011528414214548A15130140C0543C150C1
S11307F030140C0543C1500400B706224A4B10B80C
S11308000B45C84C052521C90400B908745A4D1D6F
S1130810463ABA0B7558CD4C24B389645CBB0F6857
S11308202A5388642299488B48221201BC1ECD0A9F
S11308305D0965C4204D2C8B8BD444A19944420E90
S113084045A412D5904D2A0C4B00BD1CCC085D0963
S11308506334192D2C128BE212C94C1251942806C0
S1130860D5A4B192AC00BE1FCD08DD4C63129958DB
S11308701696C945218996D128429644C4115589B2
S1130880312A944A00BF11C7DA5449E55045E15072
S11308902AA31D241500C01B0B09D9C56172601C55
S11308A0790E999725D2C950265B928A0E92839D20
S11308B02EC11B0B0959C74172481C7D0E999725FF
S11308C0D2C950265B928A0E92839D2EC21B0B09BD
S11308D0D9C641F3581C710E999725D2C950265B8D
S11308E0928A0E92839D2EC31BFB08594EA2913906
S11308F0E21C322F4BA493A14CB624151D24073BB4
S11309005D00C41BFB0859C9843239DA1C322F4BF1
S1130910A493A14CB624151D24073B5D00C51E0BF2
S11309200959CA21A178280E9183E6907959229D0C
S11309300C65B225A9E82039D8E902C61CCE08DF27
S11309401D68079A440E11C92122394474929DEE00
S113095067A15878181E02C71B0ACBD8154FB38954
S1130960B42E87C821738854321B1DEB7190382430
S11309709E01C814080B55C5E59038F070202B5F14
S11309802E62E5C34100C913080BD586A571E8E1C1
S11309904056BE5CC4CA878300CA14080B558687B8
S11309A0B138E870202B5F2E62E5C34100CB12F80A
S11309B00AD588B4830E07B2F2E522563E1C04CC55
S11309C00B03094984644189FE07CD0B030B494598
S11309D0A612FD2F00CE0D050949C526B1B04CFF66
S11309E01300CF0DF606498848728850FF1300D0D3
S11309F019CC0859990F41E14C2A931E8487A048C9
S1130A003A92CA84B343D008D11AFA0AD94D8291D2
S1130A1039786A3452641419494412D1243409D1FE
S1130A207500D21A0B0B5BC66172601CB17A5B92C3
S1130A304AA6757A752215CD66D71A00D31A0B0B00
S1130A40DBC74172481CB57A5B924AA6757A752257
S1130A5015CD66D71A00D41A0B0BDBC641F3581C0C
S1130A60AD7A5B924AA6757A752215CD66D71A00BF
S1130A70D519FB0A5B4EA291395AF5B624954CEB75
S1130A80F4EA442A9ACDAE3500D619FB0ADB89A4D0
S1130A90223952F5B624954CEBF4EA442A9ACDAEA9
S1130AA03500D7129908D54423B3C95A755A9BAC5B
S1130AB04DA21100D81CCB0ADB954287D050249C50
S1130AC0CC2434114946914D8622E1E8100AD50020
S1130AD0D9120A0BD9C54172581C2EE69F8B934339
S1130AE0CC04DA120A0B59C721F2388A987F2E4EA9
S1130AF00E311300DB120A0BD9C621E3581C2AE677
S1130B009F8B9343CC04DC11FA0A59298AE45031AF
S1130B10FF5C9C1C622600DD1C0A0957C721F238C1
S1130B208AB83811CA444291944C9743E41039442A
S1130B300E1102DE11C90A57C84F8788B0CA78A0BF
S1130B409CE4EA00DF14C80AD5942E32894C221999
S1130B504928425E28921100E015D80A53C5E59051
S1130B6038B47491494796914426394D06E114D816
S1130B700AD386A57170E922938E2C23894C729A2C
S1130B800CE215D80AD38587B138B07491494796D9
S1130B90914426394D06E315C80A534D429139B0A4
S1130BA07491494796914426394D06E414C80AD3F2
S1130BB0A849E4C0D245261D59461299E43419E5E2
S1130BC016D80AD34943C1505458BAC8A423CB48B1
S1130BD022939C2603E6179D0ADF5448878A4C28F3
S1130BE03C480E879058443A1C424C00E713D8CA3C
S1130BF052D12CA3B2F26862A3C68521E10C00E8AD
S1130C0013D80A55C5E590389866111E0EE6D1C46E
S1130C104602E912D80AD586A57138CD223C1CCCEF
S1130C20A3898D04EA13D80A558687B138906611D2
S1130C301E0EE6D1C44602EB13C80A5549641239A4
S1130C409066111E0EE6D1C44602EC0BD30849840B
S1130C50644189FE00ED0BD30A4945A612FD050047
S1130C60EE0CD50849C526B1B04C7F02EF0BC50880
S1130C704948286299FE04F011C80AD5884BE599C1
S1130C806554642C4D6C2400F110C80A554D4291F2
S1130C90394C4239D0887C14F213D80A55C5E590F2
S1130CA03898661915194B131B0900F312D80A5505
S1130CB086A571149A6554642C4D6C2400F413D8E1
S1130CC00AD58587B13894661915194B131B090089
S1130CD0F513C80A554D42913994661915194B13E9
S1130CE01B0900F612C80AD5A849E4509A65546451
S1130CF02C4D6C2400F70E880AD589E5C0C3410E3B
S1130D0014CB00F812980A5551228751C922319503
S1130D100E93080900F910D80A55C5E5903850C853
S1130D206F070A4500FA0FD80A5586A571B090DFFF
S1130D300E148A00FB10D80AD58587B1384CC86FC9
S1130D40070A4500FC0FC80AD5A849E43021BF1D95
S1130D50281401FD1918C9D286A571A890289149B3
S1130D604432894C22A34EC58A532900FE1308CB72
S1130D705488B58C2EA32263E930918CC49A01FF68
S1130D801A08C95249641239484894C8242299441B
S1130D90269151A762C5A9140000000004FFFF00BA
S1130DA000FFFFFFFFFFFFFFFFFFFFFFFFFFFFFF4E
S1130DB0FFFFFFFFFFFFFFFFFFFFFFFFFFFFFFFF3F
S1130DC0FFFFFFFFFFFFFFFFFFFFFFFFFFFFFFFF2F
S1130DD0FFFFFFFFFFFFFFFFFFFFFFFFFFFFFFFF1F
S1130DE0FFFF00E01FF80700FFFF00E01FF8070007
S1130DF0FFFFFCE7E1FFE73FFFFFFCE7E1FFE73F21
S1130E00FFFF0CE67F786630FFFF0CE67F786730E3
S1130E10FFFF0C667E866730FFFF0C667C866730BA
S1130E20FFFF0C66F8996730FFFFFCE71F80E73F80
S1130E30FFFFFCE71F80E73FFFFF00E06666070057
S1130E40FFFF006066660600FFFFFFFF8761FEFF8D
S1130E50FFFFFFFF8761FEFFFFFFF88399197EFC08
S1130E60FFFFF08199197EFCFFFFE091796618027B
S1130E70FFFFC09979661803FFFF3C60E61F20332B
S1130E80FFFF3C60E61F6033FFFF4CFE798619FFCD
S1130E90FFFFCCFE798619FFFFFF00E719809FC38F
S1130EA0FFFF00E719809FC3FFFF0CFEF91FE6F365
S1130EB0FFFF0CFEF91FE6F3FFFFFC01007EE63F97
S1130EC0FFFFFC01007EE63FFFFF0C789E076033C6
S1130ED0FFFF0C709E072032FFFF0CE1871F0030DC
S1130EE0FFFF8CE3871F0020FFFFFF7F60187E0356
S1130EF0FFFFFF7F60187E02FFFF0060861F66F021
S1130F00FFFF0060861F76F0FFFFFC677E787ECFD0
S1130F10FFFFFCE77E383EDFFFFF0CE66706003F7D
S1130F20FFFF0CE6FB278E37FFFF0CE6F9679E33C5
S1130F30FFFF0CE6011E863DFFFF0CE6011E863C0A
S1130F40FFFFFCE786E701FFFFFFFC6786E701FF81
S1130F50FFFF0060E081231FFFFF0060E081670F57
S1130F60FFFFFFFFFFFFFFFFFFFFFFFFFFFFFFFF8D
S1130F70FFFFFFFFFFFFFFFFFFFFFFFFFFFFFFFF7D
S1130F80FFFFFFFFFFFFFFFFFFFFFFFFFFFFFFFF6D
S1130F90FFFFFFFFFFFFFFFFFFFFFFFFFFFFFFFF5D
S1130FA0FFFFFFFFFFFFFFFFFFFFFFFFFFFFFFFF4D
S1130FB0FFFFFFFFFFFFFFFFFFFFFFFFFFFFFFFF3D
S1130FC0FFFFFFFFFFFFFF7F00FCFF07C0FFFFFFE6
S1130FD0FFFFFF1FFFFFFF0F00E0FF0000FFFFFF09
S1130FE0FFFFFF1FFFFFFF07FEC03FE00FFCFFFFF7
S1130FF0FFFFFF1FFFFFFFC3FF071FFC7FF8FFFF7B
S1131000FFFFFF1FFFFFFFE0FF1F0EFFFFF0FFFFCB
S1131010FFFFFF1FFFFFFFF8FF3F84FFFFE1FFFF1C
S1131020FFFFFF1FFFFF7FFCFF7FC0FFFFC3FFFF2A
S1131030FFFFFF0FFEFF3FFCFFFFE0FFFFC7FFFFC7
S1131040FFFFFF0FFEFF3FFEFFFFF1FFFF8FFFFFDC
S1131050FFFFFF0FFEFF3FFEFFFFF9FFFF8FFFFFC4
S1131060FFFFFF0FFEFF1FFFFFFFFFFFFF8FFFFFCD
S1131070FFFFFF0FFEFF1FFFFFFFFFFFFF8FFFFFBD
S1131080FFFFFF0FFEFF1FFFFFFFFFFFFF1FFFFF1D
S1131090FFFFFF0FFEFF1FFFFFFFFFFFFF8FFFFF9D
S11310A0FFFFFF0FFEFF1FFEFFFFFFFFFF8FFFFF8E
S11310B0FFFFFF07FE9F3FFEFFFFFFFFFF8F3FFF86
S11310C0FFFFFF07FE8F3FFEFFFFFFFFFF8F3FFE87
S11310D0FFFFFF07FE0F3FFEFFFFFFFFFF871FFE1F
S11310E0FFFFFF07FC0F7FFCFFFFFFFFFFC71FFE93
S11310F0FFFFFF47FC0F7FFCFFFFFFFFFFC31FFE47
S1131100FFFFFF47FC0FFFF8FFFFFFFFFFE31FFE9A
S1131110FFFFFF47FC07FFF0FFFFFFFFFFE11FFC9E
S1131120FFFFFF47FC07FFF1FFFFFFFFFFF01FFC7E
S1131130FFFFFF47FC07FEE3FFFFFFFFFFF81FFC75
S1131140FFFFFF638C07FEC3FFFFFFFF7FFC0FFC65
S1131150FFFFFF638C07FE87FFFFFFFF3FFC0FFCD1
S1131160FFFFFF638407FE0FFFFFFFFF1FFE0FF863
S1131170FFFFFF630023FE1FFEFFFFFF0FFF8FF83B
S1131180FFFFFFE30023BE3FFCFFFFFF87BF8FF895
S1131190FFFFCFE300221E7FF8FFFFFFC31F8FF87E
S11311A0FFFFC7E320621CFEF0FFFFFFE10FC7F85B
S11311B0FFFF87E320600CFEE1FFFFFFF00FC6F89E
S11311C0FFFF83E370700CFCC3FFFF3FF807C6F119
S11311D0FFFF83F170700CFC07FFFF1FFE07C6F1D1
S11311E0FFFF81F1F070CCF81FFEFF0FFF43C4F145
S11311F0FFFF80F1F870C4F81FFCFF07FF63C4F120
S1131200FF0088F1F970C00000F8FF030060C0011E
S1131210000088F1FFF9C00100F8FF030070E0034B
S113122000FF8FF1FFFFE0FFFFFFFFFFFFFFE0FF85
S1131230FFFF8FF1FFFFE0FFFFFFFFFFFFFFE0FF76
S1131240FFFF8FF1FFFFE0FFFFFFFFFFFFFFE0FF66
S1131250FFFF9FF1FFFFE0FFFFFFFFFFFFFFE0FF46
S1131260FFFF1FF9FFFFF0FFFFFFFFFFFFFFE1FF9D
S1131270FFFF1FF8FFFFF0FFFFFFFFFFFFFFE1FF8E
S1131280FFFF1FF8FFFFF1FFFFFFFFFFFFFFF1FF6D
S1131290FFFF1FF8FFFFF9FFFFFFFFFFFFFFF3FF53
S11312A0FFFF1FF8FFFFFFFFFFFFFFFFFFFFFFFF31
S11312B0FFFF1FF8FFFFFFFFFFFFFFFFFFFFFFFF21
S11312C0FFFF1FF8FFFFFFFFFFFFFFFFFFFFFFFF11
S11312D0FFFF1FF8FFFFFFFEFDFFEFFFFFE7FFEF3C
S11312E0FFFF3FF8BCF9FFFCF9FFE7BFFFE7FFEFA3
S11312F0FFFF3FFC18F9FFFCF9FFE73FFFE7FFE7BB
S1131300FFFF3F7C1A79E6E449DF643F9707D32463
S1131310FBFF3F7CBBF9F6E4699E263FBB679966F9
S1131320F9FF3F7CB319F6E40986663CBB67996E06
S1131330FDFF3F3CB2D9F6E4C99BE63DBB679B6425
S1131340FCFF3FBC2713CEE41983607CC607C3E0CF
S1131350FCFF3FFCFFFFFFFFFFFFFFFFFFFFFFFF5F
S1131360FCFF3FFCFFFFFFFFFFFFFFFFFFFFFFFF4F
S1131370FEFF3FFCFFFFFFFFFFFFFFFFFFFFFFFF3D
S1131380FFFF7FFEFFFFFFFFFFFFFFFFFFFFFFFFEA
S1131390FFFFFFFFFFFFFFFFFFFFFFFFFFFFFFFF59
S11313A0FFFFFFFFFFFFFFFFFFFFFFFFFFFFFFFF49
S11313B0FFFFFFFFFFFFFFFFFFFFFFFFFFFFFFFF39
S11313C0FFFFFFFFFFFFFFFFFFFFFFFFFFFFFFFF29
S11313D0FFFFFFFFFFFFFFFFFFFFFFFFFFFFFFFF19
S11313E0FFFFFFFFFFFFFFFFFFFFFFFFFFFFFFFF09
S11313F0FFFFFFFFFFFFFFFFFFFFFFFFFFFFFFFFF9
S1131400FFFFFFFFFFFFFFFFFFFFFFFFFDFFFFFFEA
S1131410FFFF1FFEFF1FFFFFFFFFFFC0FCFFFFFFDB
S1131420FFFF01F0FF01E0FFFFFFFF88FCFFFFFF6C
S1131430FF7F00C0FF0080FFFFFFFF9CFCFFFFFF5A
S1131440FF1F00803F0000FFFFFFFF9C183E0EFFC0
S1131450FF0F00001E0000FEFFFFFF881C0C06FEAD
S1131460FF07E0000CE001FCFFFFFFC03CCC07FEDF
S1131470FF03FC0700FC0FF8FFFFFFF81CCC07FE7E
S1131480FF03FF0F00FE1FF8FFFFFFFCCCCCE7FFBC
S1131490FF81FF3F00FF3FF0FFFFFFFC0C8CC6FE07
S11314A0FFC1FF7F80FF7FF0FFFFFFFC1C1C0EFECF
S11314B0FFC1FFFFC0FFFFE0FFFFFFFFFFFFFFFFD4
S11314C0FFE0FFFFE1FFFFE0FFFFFFFFFFFFFFFF84
S11314D0FFE0FFFFFBFFFFE0FFFFFFFFFFFFFFFF5A
S11314E0FFE0FFFFFFFFFFE0FFFFFFFFFFFFFFFF46
S11314F0FFE0FFFFFFFFFFE0FFFFFFFFFFFFFFFF36
S1131500FFE0FFFFFF03FFE0FFFFFFFFFFFFFFFF21
S1131510FFE0FFFFFF00FCE0FFFFFFFFFFFFFFFF17
S1131520FFE0FFFF3F00F0E0FFFFFFFFFFFFFFFFD3
S1131530FFE0FFFF1F00E0E0FFFFFFFFFFFFFFFFF3
S1131540FFC1FFFF1F00E0E0FFFFFFF3FCFFFFFF11
S1131550FFC1FFFF0F004080FFFFFF63FEFFFFFF9F
S1131560FFC1FFFF0F000000FCFFFF67FEFFFFFF4E
S1131570FF83FFFF07000000F8FFFF078777B6FF30
S1131580FF03FFFF07000000F0FFFF0F037386FF58
S1131590FF07FEFF07000000E0FFFF8F3172E6FF48
S11315A0FF07FEFF07000000C0FFFF9F7972E6FF00
S11315B0FF0FFCFF07000000C0FFFF9F7972E6FFEA
S11315C0FF1FF8FF0700000080FFFF9F3323E6FFA3
S11315D0FF3FF0FF0700000080FFFF9F8307E6FF47
S11315E0FF3FC0FF0700000080FFFFFFFFFFFFFF7A
S11315F0FF7F80FF0F00000080FFFFFFFFFFFFFF62
S1131600FFFF00FF0F00000080FFFFFFFFFFFFFF51
S1131610FFFF01FE1F00000080FFFFFFFFFFFFFF31
S1131620FFFF07FC1F000000C0FFFFFFFFFFFFFFDD
S1131630FFFF0FF83F000000C0FFFFFFFFFFFFFFA9
S1131640FFFF1FE03F000000C0FFFFFFFFFFFFFFA1
S1131650FFFF3FC07F000000E0FFFFFFFFFFFFFF31
S1131660FFFF7F807F000000F0FFFFFFFFFFFFFF11
S1131670FFFFFF011F000000F8FFFFFFFFFFFFFF58
S1131680FFFFFF030E000000FCFF1FC8FFFFFFFF6A
S1131690FFFFFF070C000000FEFF1FCEFFFFFFFF50
S11316A0FFFFFF0F00000080FFFF9FFFFFFFFFFF12
S11316B0FFFFFF1F000300E0FFFF9FDFC483E3E59C
S11316C0FFFFFF3F800700F8FFFF1FCF8081C1E0CD
S11316D0FFFFFF7FC00700FFFFFF1FC898C980F806
S11316E0FFFFFFFFE00FC0FFFFFF1FCF9CC180FC87
S11316F0FFFFFFFFF10FF8FFFFFF9FCF9CE1FCF816
S1131700FFFFFFFFFF1FFEFFFFFF9FCF9CF9D8FCE9
S1131710FFFFFFFFFFBFFFFFFFFF9FCF9CC1C1FC87
S1131720FFFFFFFFFFFFFFFFFFFFFFFFFF98FFFF2C
S1131730FFFFFFFFFFFFFFFFFFFFFFFFFF9CFFFF18
S1131740FFFFFFFFFFFFFFFFFFFFFFFFFFC0FFFFE4
S1131750FFFFFFFFFFFFFFFFFFFFFFFFFFFFFFFF95
S1131760FFFFFFFFFFFFFFFFFFFFFFFFFFFFFFFF85
S1131770FFFFFFFFFFFFFFFFFFFFFFFFFFFFFFFF75
S1131780FFFFFFFFFFFFFFFFFFFFFFFFFFFFFFFF65
S1131790FFFFFFFFFFFFFFFFFFFFFFFFFFFFFFFF55
S11317A0FF0011241FBECFE5D8E0DEBFCDBF11E09E
S11317B0A0E6B0E0E4E0FCE302C005900D92A83995
S11317C0B107D9F726E0A8E9B1E001C01D92A03322
S11317D0B207E1F70E94AE180C94001E0C940000AE
S11317E02F923F924F925F926F927F928F929F922D
S11317F0AF92BF92CF92DF92EF92FF920F931F931B
S1131800CF93DF935C017B014A01E9016801FC018C
S1131810EC58FF4F30808A010F5F1F4F9B012C0F44
S11318203D1F0E945F12882309F43CC02097B1F148
S113183011E0350183E7680E711C2501E4E74E0EC3
S1131840511C22242394F6018491812359F0F2013E
S1131850308200E021E030E0A401B701C5010E941C
S1131860901111C0F301808181110DC0822D3110BE
S113187080E0F201808300E021E030E0A401B701C0
S1131880C5010E949011FFEFEF1AFF0A110F21F416
S11318908FEFC81AD80A11E02197A9F6F501EC5880
S11318A0FF4F3082DF91CF911F910F91FF90EF9006
S11318B0DF90CF90BF90AF909F908F907F906F906C
S11318C05F904F903F902F9008954F925F926F9248
S11318D07F928F929F92AF92BF92CF92DF92EF92BC
S11318E0FF920F931F93CF93DF932C015B01EA01C7
S11318F0390168018A010C0D1D1D260F371F0E9436
S11319005F128823D9F0C114D104C1F0430187E0E8
S1131910880E911C969487949694879496948794B1
S113192087019301AE01B501C2010E94F00BE80CDE
S1131930F91C219681E0C81AD10891F7DF91CF9163
S11319401F910F91FF90EF90DF90CF90BF90AF90D9
S11319509F908F907F906F905F904F900895AF927B
S1131960BF92CF92DF92EF92FF920F931F93CF9388
S1131970DF937C01DC019496BC9094979596DC915E
S11319809597ED91FC91A188CD2FC12CD12CD70135
S1131990ED91FC911197208992960D911C9193974A
S11319A0422F50E0440F551F440F551F440F551F3D
S11319B04C9DC0014D9D900D5C9D900D1124080F10
S11319C0191F4C2F60E0C7010E945A16CF5F8C2F5D
S11319D08D1B8B1528F4BFEFCB1ADB0ACA15B8F29E
S11319E0DF91CF911F910F91FF90EF90DF90CF90F7
S11319F0BF90AF900895FC01A081B18150969C9155
S1131A0044A1949FA0011124440F551F440F551F56
S1131A10440F551F60E070E082A193A10E94EE1D67
S1131A200895CF93DF93EC010E94AF0CCE010E9486
S1131A309E16DF91CF91089528E0FC01208388E968
S1131A4091E00895CF92DF92EF92FF920F931F934C
S1131A50CF93DF931F92CDB7DEB77C016B01890171
S1131A609A014FE955E162E377E10E947717CE01CD
S1131A7001960E941C0D86012BE433E14981BC01CF
S1131A80C7010E9488140F90DF91CF911F910F918D
S1131A90FF90EF90DF90CF900895FC01E60FF11DC9
S1131AA0849190E0982F88273196E4918E0F911DB0
S1131AB0089580E090E0089580599F4FFC01808153
S1131AC0082E000C990B019608950F931F93CF9342
S1131AD0DF93EC018B01FB01849188833196E491BF
S1131AE0E983FB013296E491EA83FB013396E491A6
S1131AF0EB83FB013496E491EC83FB013596E4918E
S1131B00ED83FB013696E491EE83FB013796E49175
S1131B10EF83FB013896E491E887FB013996E49161
S1131B20E987FB013A96E491EA87FB013B96E4914D
S1131B30EB87FB013C96E491EC87FB013D96E49135
S1131B40ED87FB013E96E491EE87FB013F96E4911D
S1131B50EF87FB017096E491E88B61E1C8010E9474
S1131B604D0D9A8B898B63E1C8010E944D0D9C8BAE
S1131B708B8B65E1C8010E944D0D9E8B8D8BDF918F
S1131B80CF911F910F910895DC011A969C911A9799
S1131B90ED91FC911197249130E0092E02C0359506
S1131BA027950A94E2F7892F860F883010F4E22FE4
S1131BB00FC031961196FC93EE93E491F0E038E077
S1131BC0391B02C0EE0FFF1F3A95E2F7E22B885053
S1131BD01A968C9381E090E002C0880F991F6A9551
S1131BE0E2F781508E2308950F931F93CF93DF93D1
S1131BF08C01EC01C85BDF4F798368831A86FC0192
S1131C00E55AFF4F6081CE010E94C40D8887F80118
S1131C10E45AFF4F6081CE010E94C40D8987F80108
S1131C20EC58FF4F80818C8791E0811190E09D8773
S1131C30DF91CF911F910F910895CF93C62F0E94EA
S1131C40C40DC15021E030E002C0220F331FCA95F9
S1131C50E2F7821BCF910895213049F018F0223029
S1131C6059F00FC0840F911D47FD9A950895860F72
S1131C70911D67FD9A950895841B910947FD9395DD
S1131C800895861B910967FD93950895213049F0C5
S1131C9018F0223059F00FC0860F911D67FD9A95F8
S1131CA00895841B910947FD93950895861B910916
S1131CB067FD93950895840F911D47FD9A950895A6
S1131CC02F923F924F925F926F927F928F929F9248
S1131CD0AF92BF92CF92DF92EF92FF920F931F9336
S1131CE0CF93DF934C01D62F342EFC01E85BFF4FDA
S1131CF0568017817F013C01E4E76E0E711CF701E9
S1131D00C085C5192D2ECD1708F42C2EF701C480DB
S1131D10D5800685412E202F412F652D8281938108
S1131D200E94460E5C01202F412F652DC6010E94A2
S1131D302C0E332061F0F7012485F3012083222D3A
S1131D4030E0AC01B501C4010E9490110EC0F7014E
S1131D50238521110AC02585F3012083222D30E03B
S1131D60AC01B501C4010E949011DC1720F0DC1B0A
S1131D701F5F512CC4CFF401E85BFF4FD50DD68310
S1131D804782DF91CF911F910F91FF90EF90DF90E9
S1131D90CF90BF90AF909F908F907F906F905F9007
S1131DA04F903F902F9008956F927F928F929F92C1
S1131DB0AF92BF92CF92DF92EF92FF920F931F9355
S1131DC0CF93DF93EC017C0188E4E80EF11CCE0193
S1131DD00E94F40DFE01EF5AFF4F60803C96608133
S1131DE0C7010E941D0E982EFE01E25AFF4F60812A
S1131DF0C7010E941D0E182FFE01E15AFF4F60819A
S1131E00C7010E941D0E782EF701808418140CF06F
S1131E10A4C00685160D1195202F412F692D8281AE
S1131E2093810E94460E6C01F70193838283202FD5
S1131E30412F692D848195810E942C0EF701958391
S1131E408483013089F028F00230F9F0033099F1ED
S1131E5043C09601280D311D87FC3A958C01060D6F
S1131E60111D67FC1A953AC041E050E0461951092A
S1131E7067FC539596012F5F3F4F8C01080D111D90
S1131E8087FC1A95C40ED51E29C041E050E0BA0162
S1131E906819710987FC739596012F5F3F4F4619A6
S1131EA0510967FC53958C010F5F1F4F840F951FD9
S1131EB0C60ED71E13C09601260D311D67FC3A9538
S1131EC041E050E04819510987FC53958C010F5F9C
S1131ED01F4F840F951F02C08C019601AC01B601FF
S1131EE0CE010E945F128823C1F1FE01E85BFF4F1F
S1131EF0168217824E01F9E58F0E911C5E018AE568
S1131F00A80EB11C6E01E8E4CE0ED11CF401608170
S1131F10C7010E94C40D082FF5016081C7010E940A
S1131F20C40D182F40E0602FCE010E94600E41E0E6
S1131F30612FCE010E94600E61E0C7010E94C40DB2
S1131F408111F0CFF6018781861504F3FE01EC5868
S1131F50FF4FC85BDF4F8C858083872DDF91CF9146
S1131F601F910F91FF90EF90DF90CF90BF90AF90B3
S1131F709F908F907F906F900895EF92FF920F93B0
S1131F801F93CF93DF93FC01EC5BFF4FC081D181A2
S1131F9067966F3F710511F008F035C06136710521
S1131FA030F0B69680819181C80FD91F0AC0613480
S1131FB0710538F0FC01E859FF4F80819181C80F09
S1131FC0D91FCE010196FC012491222309F45AC0A1
S1131FD0FE01249130E06217730751F406C0FE013C
S1131FE0249130E06217730719F4CE01029652C0AF
S1131FF0FC018491C80FD11DCE010196FC012491EE
S11320002111EDCF42C08B01FC01E459FF4F8081C7
S11320109181C80FD91F7E0160E0C7010E944D0D58
S1132020C80FD91F62E0C7010E944D0DF4E0EF0E06
S1132030F11C8017910780F3FE01849190E0982FA2
S113204088273196E4918E2B009711F10817190710
S113205039F403C00817190719F4CE0103961AC0FE
S1132060FE013296E491CE0FD11DFE01849190E0E1
S1132070982F88273196E4918E2B009759F780E0AA
S113208090E008C080E090E005C080E090E002C0ED
S113209080E090E0DF91CF911F910F91FF90EF903E
S11320A00895CF92DF92EF92FF920F931F93CF93F5
S11320B0DF93EC017B018A016901FC01EA5AFF4FBD
S11320C08081813089F028F08230C9F0833011F1A9
S11320D02BC0FE01EA5BFF4F0190F081E02DCE01A1
S11320E00995080F191F20C0FE01EA5BFF4F0190FC
S11320F0F081E02DCE010995E81AF90A15C0FE0118
S1132100EA5BFF4F0190F081E02DCE010995081B99
S1132110190B0AC0FE01EA5BFF4F0190F081E02D2C
S1132120CE010995E80EF91EFE01E65BFF4FF18230
S1132130E082329611830083B601CE010E94BD0F66
S1132140009741F0BC01CE010E94D40E082E000C71
S1132150990B02C080E090E0DF91CF911F910F9125
S1132160FF90EF90DF90CF9008958F929F92AF925F
S1132170BF92CF92DF92EF92FF920F931F93CF9370
S1132180DF93EC015B016A01E22EF32E0E94C51479
S11321900E2D1F2DE12CF12C4E0126E5820E911CF3
S11321A0F80161918F01EA81FB81CE0109958F3F8E
S11321B0FFEF9F0719F18E3F2FEF920789F39C01E0
S11321C0A601B501CE010E9451109C01F401908139
S11321D0913049F028F0923049F0933051F00BC01F
S11321E0A20EB31E08C0C20ED31E05C0A21AB30AA3
S11321F002C0C21AD30AE20EF31ED2CFC701DF9186
S1132200CF911F910F91FF90EF90DF90CF90BF90EF
S1132210AF909F908F900895E8EBF4E1DC01139662
S1132220FC93EE9312970E94B5100895FC01EC5BA9
S1132230FF4F20813181232BE1F1B09620813C9620
S113224020833B9740813C964083329730813323EF
S113225081F1313079F439973081231714F43A96A7
S11322603083FC01E959FF4F2081241714F53A9675
S113227020830895FC01EF59FF4FE081DC01AD5943
S1132280BF4F5C91022E000C330B652F052E000C02
S1132290770B6E0F711DE7FD7A95261737071CF42F
S11322A01D96E50FEC93541724F4FC01EF58FF4FEF
S11322B0508308958A5B9F4F29E53DE0FC013183FB
S11322C0208308958A5B9F4F2CE53DE0FC01318318
S11322D020830895CF93DF93FC01EC5BFF4F2081B3
S11322E031812617370751F0EC0171836083895AD5
S11322F09F4F0E94650DCE010E941611DF91CF9170
S113230008950F93DC019A96ED91FC919B974E1BD7
S11323105F0B5E96ED91FC915F9709950F9108957F
S1132320EF92FF920F931F93CF93DF93DA01FC0197
S1132330E259FF4F5081552309F483C0211531051B
S113234009F47FC02230310570F0023029F46F5F48
S11323507F4F621B730B0BC0033029F41196A21B31
S1132360B30BF1E037C0F02FF17000FD33C0EC0186
S113237048AD59ADA417B50708F463C04AAD5BADC9
S1132380A417B50708F05DC04EA95FA9ECA9FDA983
S1132390260F371F2617370740F46417750720F4F4
S11323A09A012150310905C0BF016417750708F06F
S11323B048C0E217F30708F044C06E177F0708F41B
S11323C0BF012417350708F4A9019A01261B370B0E
S11323D0F0E02DC0EC014CA95DA96417750788F1E4
S11323E04EA95FA96417750760F54AAD5BAD08ADEA
S11323F019AD2A0F3B1F2A173B0740F4A417B50752
S113240020F49A012150310904C0D801A417B5075A
S1132410C0F402171307A8F4A017B10708F4D801F1
S11324202417350708F4A9019A012A1B3B0BEC0178
S113243048A159A1EA01EC80FD800F2FAD01F701FD
S11324400995DF91CF911F910F91FF90EF9008951F
S11324500F93FC0180AD91AD48175907A8F082ADE8
S113246093AD4817590780F484A995A9681779078B
S113247058F086A997A96817790730F4CF0100E0CE
S113248021E030E00E9490110F91089546175707FC
S113249048F48217930778F081E02417350770F029
S11324A080E008958217930740F481E024173507EC
S11324B028F080E0089581E0089580E00895CF92A7
S11324C0DF92EF92FF920F931F93CF93DF93EC0170
S11324D07B01690198016AAD7BAD88AD99AD0E941D
S11324E04612882341F06EA97FA99601A7018CA901
S11324F09DA90E944612DF91CF911F910F91FF90E9
S1132500EF90DF90CF9008953F924F925F926F9239
S11325107F928F929F92AF92BF92CF92DF92EF926F
S1132520FF920F931F93CF93DF933C01EB016A015A
S113253059012617370720F44B01821A930A03C066
S11325404901861A970A0C151D0538F42601401A0C
S1132550510A84149504A8F066C028014C185D083B
S11325608414950408F07BC09A2D8B2D5801092FF3
S1132570182F9C2F8D2FE601C92ED82E3324339487
S11325800CC09C2D8D2D6501A92EB82E9C2F8D2F4E
S1132590E801092F182F332433947201F694E79439
S11325A0C016D10618F00FEF1FEF02C001E010E0D3
S11325B08FEFA816B80631F40F2EFEEFAF2EBB2412
S11325C0BA94F02DAC16BD0608F453C0311006C001
S11325D0A601BE01C3010E94281205C0AE01B601C6
S11325E0C3010E942812C701881999097C0122F4A9
S11325F0C00ED11EE40CF51C2196AC16BD0630F7B6
S113260038C07401F694E794942D852D2401892E05
S1132610982E68019C2F8D2FE501A92EB82E312C00
S113262001E010E0C5CFAC16BD0658F3942D852DFE
S11326302401892E982E312CB0CF7401F694E7949E
S1132640942D852D2401892E982E68019C2F8D2F81
S1132650E501A92EB82E312C0FEF1FEFA9CFAC1630
S1132660BD0658F3942D852D2401892E982E312CE6
S113267094CFDF91CF911F910F91FF90EF90DF9056
S1132680CF90BF90AF909F908F907F906F905F900E
S11326904F903F900895CF92DF92FF920F931F9334
S11326A0CF93DF936C01D901342F377081E090E030
S11326B0032E02C0880F991F0A94E2F7182FF6011F
S11326C0EC58FF4F2081223020F4213021F0282FB4
S11326D004C020E002C0282F10E0487FE6018AA150
S11326E09BA1E881F981F088F49EF001F59EF00D3C
S11326F011246E0F7F1FFC01E60FF71F01110AC0A2
S1132700AE0FBF1F8081822B81278193EA17FB07BD
S1132710C9F722C0A6014C585F4F9081922B912794
S113272090833F5F3770119731110EC0E6018EA17F
S11327309FA1E80FF91FEA019881923040F491308B
S113274041F011E021E006C0220F110F03C011E097
S113275001C021E0109709F7DF91CF911F910F91EC
S1132760FF90DF90CF900895CF93DF93FC01A08179
S1132770B18184A190E09C01220F331F220F331FEB
S1132780220F331F31A720A750962C91509730E089
S1132790220F331F220F331F220F331F37A326A309
S11327A075A1472F50E09A01220F331F220F331FC8
S11327B0220F331F33A722A751966C915197480FCC
S11327C0591FC62FD0E0C417D50718F4CE01871BB4
S11327D0910935A724A7880F991F880F991F880F7F
S11327E0991F820F931F97A786A754968D919C914A
S11327F0559791AB80AB56968D919C91579793AB1F
S113280082ABDF91CF9108950E94B41308950F9382
S11328101F93CF93DF93EC01FC01EE5BFF4F00812C
S113282011812EAD3FAD3297408151816CAD7DADAC
S11328300E945F12811104C0C259DF4F18822FC059
S113284081E0FE01E259FF4F80838CAD9DAD2CA940
S11328503DA92817390710F49DAB8CAB8EAD9FAD05
S11328602EA93FA98217930710F49FAB8EABFE01EC
S1132870E05CFF4F8081918128AD39AD281739077D
S113288010F499AF88AFFE01EE5BFF4F8081918118
S11328902AAD3BAD8217930710F49BAF8AAFDF914B
S11328A0CF911F910F910895FC0115AA14AA80A934
S11328B091A997AB86AB84A595A591AF80AF86A56A
S11328C097A593AF82AFCF010E94071408950F9389
S11328D00E9481110F910895DC01DD961C921E92D5
S11328E0DC97FC01E05CFF4F118210822FEF3FEF79
S11328F0FC0137AF26AFEE5BFF4F31832083909608
S1132900ED91FC9191970280F381E02D0995089552
S11329100F931F93CF93DF93EC01FC01EC5BFF4F0C
S1132920118210823F8F2E8F7BA36AA34CA31DA21A
S11329303F961082B096108234971082359681E0CB
S113294080833196808319A308A3D801ED91FC916B
S1132950CE010995CE010E946C14CE010E945A1139
S1132960CA5ADF4F1882DF91CF911F910F910895BA
S1132970662329F06A3031F0862F90E008958FEFB6
S11329809FEF08958FEF9FEF0895FC01108E089537
S11329909A01DC011896ED91FC911997462F67E195
S11329A009950895CF93DF931F92CDB7DEB769835E
S11329B0AE014F5F5F4F61E00E94C8140F90DF913A
S11329C0CF910895DC011896ED91FC91199720E0C0
S11329D030E040E068E109950895DC011896ED9136
S11329E0FC91199720E030E040E069E109950895F1
S11329F0EF92FF921F93CF93DF93EC01162F7A018E
S1132A000E94E21460E4CE010E94D214E885F985A4
S1132A109701412F67E1CE010995CE010E94ED1483
S1132A20DF91CF911F91FF90EF900895462FDC0125
S1132A301696ED91FC91179720E030E065E1099539
S1132A400895462FDC011696ED91FC91179720E02E
S1132A5030E066E1099508959A01DC011696ED913E
S1132A60FC911797462F67E109950895DC011696A6
S1132A70ED91FC91179720E030E040E068E1099582
S1132A800895DC011696ED91FC91179720E030E053
S1132A9040E069E109950895EF92FF920F931F9327
S1132AA0CF93DF931F92CDB7DEB77C018B01D801A2
S1132AB06C916731C1F018F4653130F438C06A3173
S1132AC0F8F06E3F51F133C0F80141814983D701D9
S1132AD01696ED91FC91179720E030E0C701099517
S1132AE00E5F1F4FE4CFF80181818983AE014F5FF0
S1132AF05F4F61E0C7010E942C150E5F1F4FD7CFB7
S1132B000F5F1F4FD7011696ED91FC91179720E0A8
S1132B1030E040E0C7010995CACFF80141814983FB
S1132B2069E2C7010E9455170E5F1F4FC0CF0F9077
S1132B30DF91CF911F910F91FF90EF900895EF9245
S1132B40FF920F931F93CF937C01C42F89016631A9
S1132B5029F130F4643109F442C0653149F062C0AE
S1132B60683109F450C0F8F0693109F450C05AC012
S1132B7080919805882319F0C7010E94ED14C701BC
S1132B800E94E21460E0C7010E94D2146C2FC701B6
S1132B900E94D21481E08093980545C0642F0E945E
S1132BA0D21481E040C080919805882319F0C701B0
S1132BB00E94ED14C93150F0A80168E1C7010E94D8
S1132BC0F814C851085E1F4FC931B0F7A8016C2F23
S1132BD0C7010E94F8141092980581E024C0DC011A
S1132BE056968C9156978F3F19F488E756968C9396
S1132BF0D7011896ED91FC91199798014C2F64E137
S1132C00C701099510C01092980581E00CC080910D
S1132C109805882319F0C7010E94ED1410929805B5
S1132C2081E001C080E0CF911F910F91FF90EF9060
S1132C300895FC0171836083FB012289FC01248BCC
S1132C400895CF93DF93EC01EA85FB8520E030E023
S1132C5040E068E20995EE81FF8120E030E040E049
S1132C6064E1CE01099541E06BE4CE010E94551761
S1132C70E881F981448169E2CE010E94551740E060
S1132C806BE4CE010E945517E881F981448169E221
S1132C90CE010E94551741E06BE4CE010E94551706
S1132CA0E881F981458169E2CE010E945517DF91DF
S1132CB0CF9108950F931F93CF93DF9300D000D04B
S1132CC01F92CDB7DEB76C834D832B831A830983A0
S1132CD0DC011496ED91FC9115979E012F5F3F4FF7
S1132CE041E06FE009950F900F900F900F900F90B7
S1132CF0DF91CF911F910F910895DC011496ED910E
S1132D00FC91159720E030E040E069E009950895D2
S1132D10DC011496ED91FC91159720E030E040E041
S1132D206AE009950895462FDC011496ED91FC9113
S1132D30159720E030E06BE009950895DC011496C6
S1132D40ED91FC91159720E030E040E060E10995B9
S1132D500895EF92FF920F931F93CF93DF938C010B
S1132D60C42F79016D30B9F018F46B3031F072C0B2
S1132D706E3069F16F30D1F16DC0411106C069E563
S1132D8071E00E944C1581E066C064E571E00E9428
S1132D904C1581E060C041110DC06DE471E00E94EA
S1132DA04C15D801ED91FC911197828954968C931E
S1132DB081E051C066E471E00E944C15D801ED91A8
S1132DC0FC911197838954968C9381E044C00E94AE
S1132DD0361561E8C8010E9416156C2FC8010E94BF
S1132DE02115C8010E94411581E035C00E943615A5
S1132DF0F701D381DD0FDD0FDD0FD80154968C91DF
S1132E00D80F60E4C8010E9416156D2F62956F708B
S1132E106061C8010E9416156D2F6F70C8010E9471
S1132E202115F7016481606BC8010E942115D70147
S1132E304D915C91119712966C91660F660F660F17
S1132E40C8010E942C15C15091F7C8010E94411578
S1132E5081E001C080E0DF91CF911F910F91FF903D
S1132E60EF9008950F931F93CF938C01C62F0E9468
S1132E70A916811115C0C93061F0CA3091F4C80196
S1132E800E9421166EE571E0C8010E944C1581E094
S1132E9008C06EE271E0C8010E94191681E001C009
S1132EA081E0CF911F910F910895DC011A96ED9165
S1132EB0FC911B9720E030E00995089580E0089587
S1132EC0FC01118210828EE597E1958384839783B8
S1132ED086839187808793878287158A108E1486CC
S1132EE01586168617868FEF868B828F0895AF928C
S1132EF0BF92CF92DF92EF92FF920F931F93CF93E3
S1132F00DF93EC015B016A0179010E946017BD82C5
S1132F10AC82DF82CE82F986E8861B870A87CE01DF
S1132F200E947D16DF91CF911F910F91FF90EF903A
S1132F30DF90CF90BF90AF90089511B861B16370E6
S1132F4070E080E090E00E94481B9B01AC0160E0CF
S1132F5070E080E890E40E94D41B9B01AC010E94C5
S1132F60391A9B01AC0160E070E080E89FE40E94A4
S1132F70A51A0E94171B60B9089524EA34E844E9AD
S1132F8026BF06B607FEFDCF91B1987F983011F0A9
S1132F909031B1F783B936BF06B607FEFDCF91B1C4
S1132FA0987F903211F0983529F446BF06B604FC98
S1132FB0FDCFE6CF089584E986BF06B604FCFDCFB5
S1132FC0089583B984E886BF06B607FEFDCF91B1A4
S1132FD0987F81E0983209F480E008950F931F935D
S1132FE0CF93DF93683119F128F46431E1F067314C
S1132FF039F027C0693109F1603219F581E024C044
S11330008FEF840F4423F9F0E901082F10E00F5FDC
S11330101F4F020F131F89910E94E1170C171D0700
S1133020D1F781E011C00E949D1781E00DC0FC0121
S113303086890E94BD1781E007C00E94DB1781E0EA
S113304003C080E001C081E0DF91CF911F910F9117
S1133050089580E0089529E238E14EEE57E168E2F0
S113306071E08AEB95E00E94220D88E78093D005F9
S11330708AEB95E00E94881660E08AEB95E00E9456
S11330809316089517B880E687B916B884E886B908
S11330900895369A3699FECF85B10895D198D2987D
S11330A017BA11BA0E9442180E942B180895EF9281
S11330B0FF920F931F93CF93DF939C01CB01AB013E
S11330C0415051094436510520F4181619063CF0B4
S11330D03CC080E3D9018C9311961C9238C0E9015D
S11330E08901E0E0F0E00F2EFAE0EF2EF12CF02D54
S11330F001C0FA01B7010E94DA1D805DD8018D93E9
S11331008D01862F972FAF014F5F5F4F1816190659
S113311084F3D901A40FB51F1C92CA0199230CF49E
S11331200196AC01559547951416150684F431960D
S1133130E20FF31F420F531FD901899192919D937E
S11331408083C417D507C9F702C0F9011082DF9143
S1133150CF911F910F91FF90EF900895CF93DF933C
S1133160CDB7DEB7C25ED1090FB6F894DEBF0FBE8D
S1133170CDBF0E944E1880B38078582E0F2EF5E6EE
S11331802F2E312CF02D2C0E3D1E85E0280E311CE7
S11331905E0193EDA90EB11CFE013896C352DF4FB8
S11331A0F983E883CD5DD0406E01F9ECCF0ED11CDC
S11331B00F2EF0E28F2EF5E29F2EF02DC152DF4F3D
S11331C0A882CF5DD040C052DF4FB882C05ED040ED
S11331D0CF51DF4FC882C15ED040CE51DF4FD8827D
S11331E0C25ED0405AC080B38078582E89B399B358
S11331F080FD02C091FF1BC08AEB95E00E94FB0C8E
S11332000F2EF1EAEF2EFFE0FF2EF02D00E410E088
S113321020E830E040E050E060E070E08AEB95E0C8
S11332200E94650C8AEB95E00E94110D36C08AEB72
S113323095E00E94FB0C0E944918482E469446943F
S1133240E12CF12C0F2EFFE36F2E712CF02D18C002
S11332500E944918482E469446941E141F0484F470
S113326080919905A301481B51098301041911098F
S11332709701B701645071098AEB95E00E948412AA
S11332804092990584E0E80EF11C90E8E916F104F7
S1133290F9F68AEB95E00E94110D552009F4A3CFAD
S11332A00F2EFFE57F2EF02D0F2EFDE56F2EF02D56
S11332B006B310B3E12FE0785E2E0023DCF48AEB32
S11332C095E00E94FB0C0F2EF1EAEF2EFDE0FF2E9D
S11332D0F02D00E410E020E430E040E050E060E253
S11332E070E08AEB95E00E94650C8AEB95E00E9401
S11332F0110DBBC08AEB95E00E94FB0C66ED70E0FB
S11333008AEB95E00E946A118AEB95E00E946211B3
S11333100F77E02EF12CE114F10431F01C77612FCA
S113332070E061157105D9F48AEB95E00E94FB0CFD
S11333300F2EF1EAEF2EF3E1FF2EF02D00E410E062
S113334020E830E040E050E060E070E08AEB95E097
S11333500E94650C8AEB95E00E94110D86C085E001
S1133360E0E6F0E0DE01AB59BF4F01900D928A9583
S1133370E1F7F101872D11928A95E9F7C152DF4FE8
S11333808881CF5DD040C052DF4F9881C05ED0406D
S11333900E945718D5010D900020E9F7119785E098
S11333A0E3E9F1E001900D928A95E1F7C152DF4F14
S11333B06881CF5DD040C052DF4F7881C05ED0407D
S11333C0CE018B599F4F0E94F51D9E012B593F4FF3
S11333D04CE050E060E170E08AEB95E00E940C1153
S11333E087E0E4ECF0E0DE01119601900D928A95FD
S11333F0E1F7C352DF4FE881F981CD5DD040862DDE
S113340011928A95E9F7B701CF51DF4F8881C15EE8
S1133410D040CE51DF4F9881C25ED0400E945718F1
S1133420F60101900020E9F731979182808212829F
S1133430CF51DF4F6881C15ED040CE51DF4F7881DC
S1133440C25ED040CE0101960E94F51D9E012F5F01
S11334503F4F44E250E060E170E08AEB95E00E9467
S11334600C118AEB95E00E94110D511021CF15CF5C
S11334705058BB27AA270E94501A0C949A1B0E94EA
S11334808C1B38F00E94931B20F039F49F3F19F4F1
S113349026F40C94891B0EF4E095E7FB0C94831B33
S11334A0E92F0E94AB1B58F3BA176207730784070E
S11334B0950720F079F4A6F50C94CD1B0EF4E09555
S11334C00B2EBA2FA02D0B01B90190010C01CA01DA
S11334D0A0011124FF27591B99F0593F50F4503E85
S11334E068F11A16F040A22F232F342F4427585F77
S11334F0F3CF469537952795A795F0405395C9F78F
S11335007EF41F16BA0B620B730B840BBAF0915046
S1133510A1F0FF0FBB1F661F771F881FC2F70EC0E5
S1133520BA0F621F731F841F48F4879577956795B8
S1133530B795F7959E3F08F0B0CF9395880F08F0A4
S11335409927EE0F9795879508950E94B91A0C94C0
S11335509A1B0E94931B58F00E948C1B40F029F484
S11335605F3F29F00C94831B51110C94CE1B0C94D7
S1133570891B0E94AB1B68F39923B1F3552391F384
S1133580951B550BBB27AA2762177307840738F0CE
S11335909F5F5F4F220F331F441FAA1FA9F335D02B
S11335A00E2E3AF0E0E832D091505040E695001CDF
S11335B0CAF72BD0FE2F29D0660F771F881FBB1F99
S11335C0261737074807AB07B0E809F0BB0B802D77
S11335D0BF01FF2793585F4F3AF09E3F510578F0A3
S11335E00C94831B0C94CE1B5F3FE4F3983ED4F3FE
S11335F0869577956795B795F7959F5FC9F7880F77
S1133600911D9695879597F90895E1E0660F771FC8
S1133610881FBB1F621773078407BA0720F0621B59
S1133620730B840BBA0BEE1F88F7E09508950E9484
S1133630B31B88F09F5798F0B92F9927B751B0F072
S1133640E1F0660F771F881F991F1AF0BA95C9F722
S113365014C0B13091F00E94CD1BB1E008950C94D8
S1133660CD1B672F782F8827B85F39F0B93FCCF38B
S1133670869577956795B395D9F73EF4909580959F
S1133680709561957F4F8F4F9F4F0895E89409C0BF
S113369097FB3EF490958095709561957F4F8F4F81
S11336A09F4F9923A9F0F92F96E9BB279395F69597
S11336B0879577956795B795F111F8CFFAF4BB0F15
S11336C011F460FF1BC06F5F7F4F8F4F9F4F16C079
S11336D0882311F096E911C0772321F09EE8872F03
S11336E0762F05C0662371F096E8862F70E060E0BF
S11336F02AF09A95660F771F881FDAF7880F969538
S1133700879597F9089597F99F6780E870E060E0DE
S113371008959FEF80EC089500240A941616170666
S113372018060906089500240A94121613061406AE
S113373005060895092E0394000C11F4882352F011
S1133740BB0F40F4BF2B11F460FF04C06F5F7F4FC9
S11337508F4F9F4F089557FD9058440F551F59F0B0
S11337605F3F71F04795880F97FB991F61F09F3F6A
S113377079F087950895121613061406551FF2CF93
S11337804695F1DF08C0161617061806991FF1CFE3
S113379086957105610508940895E894BB2766270A
S11337A07727CB0197F90895FA01EE0FFF1F3096A2
S11337B021053105A1F16115710561F48038BFE37C
S11337C09B0749F168949038810561F08038BFEF18
S11337D09B0741F099234AF5FF3FE1053105210597
S11337E019F1E8940894E795D901AA2329F4AB2F99
S11337F0BE2FF85FD0F310C0FF5F70F4A695E0F71A
S1133800F73950F019F0FF3A38F49F779F930DD0B1
S11338100F9007FC9058089546F00C94891B60E0C3
S113382070E080E89FE308954FE79F775F934F939D
S11338303F932F930E94CF1C2F913F914F915F9103
S11338400E944B1D0C942C1C29F416F00C94831B21
S11338500C94CD1B0C94891B0E94B31BA8F39638BF
S1133860A0F707F80F92E8942BE33AEA48EB5FE7F6
S11338700E94611D0F920F920F924DB75EB70F9287
S11338800E94171DE4E5F0E00E945E1C4F915F91D9
S1133890EF91FF91E595EE1FFF1F49F0FE57E06899
S11338A04427EE0F441FFA95E1F74195550B0E940A
S11338B0911C0F9007FE0C94851C0895DF93CF9301
S11338C01F930F93FF92EF92DF927B018C01689418
S11338D006C0DA2EEF010E945E1DFE01E894A59158
S11338E02591359145915591A6F3EF010E94501A07
S11338F0FE019701A801DA9469F7DF90EF90FF9039
S11339000F911F91CF91DF9108959B01AC0160E06D
S113391070E080E89FE30C94A51A0C94831B0C942C
S1133920B81D0E94B31BD8F39923C9F3940F511DFA
S1133930A3F39150504094F059F0882332F0660F6D
S1133940771F881F91505040C1F79E3F51052CF7B7
S1133950880F911D9695879597F908955F3FACF070
S1133960983E9CF0BB27869577956795B79508F4A4
S1133970B1609395C1F7BB0F58F711F460FFE8CF1E
S11339806F5F7F4F8F4F9F4FE3CF0C94CE1B16F08A
S11339900C94B81D0C94891B68940C94831B0E948E
S11339A0B31BA8F39923C1F3AEF3DF93CF931F9313
S11339B00F93FF92C92FDD2788232AF02197660FE2
S11339C0771F881FDAF720E030E040E85FEB9FE3E1
S11339D0883920F0803E38F021968F770E94391A7A
S11339E0ECE7F0E004C00E94391AE9EAF0E00E9432
S11339F05E1C8B01BE01EC01FB2E6F57710975959E
S1133A00771F880B990B0E94481B28E132E741E39A
S1133A105FE30E945E1DAF2D9801AE01FF900F91F0
S1133A201F91CF91DF910E94501A0C949A1BFA01B6
S1133A30DC01AA0FBB1F9B01AC01BF5728F422274E
S1133A4033274427507820C0B75190F4AB2F00247B
S1133A50469537952795011CA395D2F3002071F064
S1133A60220F331F441FB395DAF30ED00C94381A87
S1133A7061307105A0E88A07B94630F49B01AC01B6
S1133A806627772788279078309621F02083318322
S1133A904283538308950E945E1D0C949A1B0E94D6
S1133AA08C1B38F00E94931B20F0952311F00C948A
S1133AB0831B0C94891B11240C94CE1B0E94AB1BFA
S1133AC070F3959FC1F3950F50E0551F629FF0016D
S1133AD0729FBB27F00DB11D639FAA27F00DB11D86
S1133AE0AA1F649F6627B00DA11D661F829F22270F
S1133AF0B00DA11D621F739FB00DA11D621F839F96
S1133B00A00D611D221F749F3327A00D611D231F6B
S1133B10849F600D211D822F762F6A2F11249F57B9
S1133B2050409AF0F1F088234AF0EE0FFF1FBB1FBC
S1133B30661F771F881F91505040A9F79E3F51057B
S1133B4080F00C94831B0C94CE1B5F3FE4F3983EEF
S1133B50D4F3869577956795B795F795E7959F5F25
S1133B60C1F7FE2B880F911D9695879597F90895B7
S1133B709F3F31F0915020F4879577956795B795DD
S1133B80880F911D9695879597F90895AA1BBB1BDD
S1133B9051E107C0AA1FBB1FA617B70710F0A61B49
S1133BA0B70B881F991F5A95A9F780959095BC016A
S1133BB0CD01089597FB072E16F4009407D077FDE6
S1133BC009D00E94C61D07FC05D03EF4909581954E
S1133BD09F4F0895709561957F4F0895DC0101C052
S1133BE06D9341505040E0F70895FB01DC010D90C6
S1133BF00020E9F7119701900D920020E1F7089554
S1073C00F894FFCF62
S1133C0448523A20000000000000000000000000B8
S1133C14000000000000000000000000000000009C
S1133C24000000000000000000000000000000008C
S1133C34000000000000000000000000000000007C
S1133C44000000000000000000000000000000006C
S1133C54000000000000000000000000000000005C
S1133C640000000053504F323A20000000000000CE
S1133C74000000000000000000000000000000003C
S1133C84000000000000000000000000000000002C
S1133C94000000000000000000000000000000001C
S1133CA4000000000000000000000000000000000C
S1133CB400000000000000000000000000000000FC
S1133CC400000000000000000414541467140001F0
S1133CD4140A6464323200093D0000042896100872
S1133CE40202800040001815A015C019FF1815A180
S1133CF415C819FF1815AE19FF1815AF19FF1815B3
S1133D04AE15D5168015A8163F15D3160015401503
S1133D148D16141520160015A115C815DA161215DA
S1133D248116CF15D916F115DB1640152E15A415D9
S10B3D34A619FF2062706D0066
S9030000FC
